:020000040800F2
:10000000005000209D240008B1230008B3230008FD
:10001000B5230008B7230008B9230008000000003A
:10002000000000000000000000000000BB230008EA
:10003000BD23000800000000BF230008C123000802
:10004000E5240008E5240008E5240008E52400086C
:10005000E5240008E5240008E5240008E52400085C
:10006000E5240008E5240008E5240008E52400084C
:10007000E5240008E5240008E5240008E52400083C
:10008000E5240008E5240008E5240008E52400082C
:10009000C5230008E5240008E5240008E52400083D
:1000A000E5240008E5240008E5240008E52400080C
:1000B000D1230008E5240008DD230008E52400081A
:1000C000E5240008E5240008E5240008E5240008EC
:1000D000E5240008A5230008E5240008E52400081D
:1000E000E5240008E5240008E524000800000000DD
:1000F0000000000000000000000000000000000000
:0C01000000000000000000005FF808F1A3
:1001100010B5054C237833B9044B13B10448AFF341
:1001200000800123237010BD740600200000000031
:10013000F8C8000808B5034B1BB103490348AFF3E7
:10014000008008BD0000000078060020F8C8000804
:1001500010F8012B11F8013B012A28BF9A42F7D071
:10016000D01A7047034613F8012B002AFBD1181A46
:100170000138704781F0004102E000BF83F0004386
:1001800030B54FEA41044FEA430594EA050F08BF32
:1001900090EA020F1FBF54EA000C55EA020C7FEAF6
:1001A000645C7FEA655C00F0E2804FEA5454D4EB73
:1001B0005555B8BF6D420CDD2C4480EA020281EA3D
:1001C000030382EA000083EA010180EA020281EA75
:1001D0000303362D88BF30BD11F0004F4FEA0131C7
:1001E0004FF4801C4CEA113102D0404261EB4101D6
:1001F00013F0004F4FEA03334CEA133302D052425C
:1002000063EB430394EA050F00F0A780A4F1010417
:10021000D5F1200E0DDB02FA0EFC22FA05F2801851
:1002200041F1000103FA0EF2801843FA05F3594137
:100230000EE0A5F120050EF1200E012A03FA0EFCB6
:1002400028BF4CF0020C43FA05F3C01851EBE371E0
:1002500001F0004507D54FF0000EDCF1000C7EEBFD
:1002600000006EEB0101B1F5801F1BD3B1F5001F3B
:100270000CD349085FEA30004FEA3C0C04F101045A
:100280004FEA445212F5800F80F09A80BCF1004F83
:1002900008BF5FEA500C50F1000041EB045141EA05
:1002A000050130BD5FEA4C0C404141EB0101013CCE
:1002B00028BFB1F5801FE9D291F0000F04BF0146BD
:1002C0000020B1FA81F308BF2033A3F10B03B3F18F
:1002D00020020CDA0C3208DD02F1140CC2F10C021F
:1002E00001FA0CF021FA02F10CE002F11402D8BF7D
:1002F000C2F1200C01FA02F120FA0CFCDCBF41EA49
:100300000C019040E41AA2BF01EB0451294330BD17
:100310006FEA04041F3C1CDA0C340EDC04F11404F4
:10032000C4F1200220FA04F001FA02F340EA0300CB
:1003300021FA04F345EA030130BDC4F10C04C4F111
:10034000200220FA02F001FA04F340EA03002946F1
:1003500030BD21FA04F0294630BD94F0000F83F43B
:10036000801306BF81F480110134013D4EE77FEA1E
:10037000645C18BF7FEA655C29D094EA050F08BF6A
:1003800090EA020F05D054EA000C04BF194610464B
:1003900030BD91EA030F1EBF0021002030BD5FEA8F
:1003A000545C05D14000494128BF41F0004130BDB7
:1003B00014F580043CBF01F5801130BD01F000450B
:1003C00045F0FE4141F470014FF0000030BD7FEA7E
:1003D000645C1ABF194610467FEA655C1CBF0B4679
:1003E000024650EA013406BF52EA033591EA030F90
:1003F00041F4002130BD00BF90F0000F04BF002188
:10040000704730B54FF4806404F132044FF00005BA
:100410004FF0000150E700BF90F0000F04BF002133
:10042000704730B54FF4806404F1320410F0004599
:1004300048BF40424FF000013EE700BF42004FEA94
:10044000E2014FEA31014FEA02701FBF12F07F4311
:1004500093F07F4F81F06051704732F07F4208BFC8
:10046000704793F07F4F04BF41F40021704730B5CF
:100470004FF4607401F0004521F000411CE700BF1B
:1004800050EA010208BF704730B54FF000050AE09E
:1004900050EA010208BF704730B511F0004502D59F
:1004A000404261EB41014FF4806404F132045FEAA1
:1004B000915C3FF4D8AE4FF003025FEADC0C18BF4A
:1004C00003325FEADC0C18BF033202EBDC02C2F13C
:1004D000200300FA03FC20FA02F001FA03FE40EACE
:1004E0000E0021FA02F11444BDE600BF70B54FF0D2
:1004F000FF0C4CF4E06C1CEA11541DBF1CEA1355B0
:1005000094EA0C0F95EA0C0F00F0DEF82C4481EA17
:10051000030621EA4C5123EA4C5350EA013518BF37
:1005200052EA033541F4801143F4801338D0A0FB24
:1005300002CE4FF00005E1FB02E506F00042E0FBD1
:1005400003E54FF00006E1FB03569CF0000F18BFD7
:100550004EF0010EA4F1FF04B6F5007F64F540747F
:1005600004D25FEA4E0E6D4146EB060642EAC62112
:1005700041EA55514FEAC52040EA5E504FEACE2E7F
:10058000B4F1FD0C88BFBCF5E06F1ED8BEF1004F82
:1005900008BF5FEA500E50F1000041EB045170BDFE
:1005A00006F0004646EA010140EA020081EA030142
:1005B000B4EB5C04C2BFD4EB0C0541EA045170BD3E
:1005C00041F480114FF0000E013C00F3AB8014F1B8
:1005D000360FDEBF002001F0004170BDC4F1000401
:1005E000203C35DA0C341BDC04F11404C4F1200582
:1005F00000FA05F320FA04F001FA05F240EA0200DD
:1006000001F0004221F0004110EBD37021FA04F612
:1006100042EB06015EEA430E08BF20EAD37070BDCC
:10062000C4F10C04C4F1200500FA04F320FA05F02B
:1006300001FA04F240EA020001F0004110EBD3702D
:1006400041F100015EEA430E08BF20EAD37070BD9D
:10065000C4F1200500FA05F24EEA020E20FA04F376
:1006600001FA05F243EA020321FA04F001F0004125
:1006700021FA04F220EA020000EBD3705EEA430E96
:1006800008BF20EAD37070BD94F0000F0FD101F0C5
:100690000046400041EB010111F4801F08BF013CFE
:1006A000F7D041EA060195F0000F18BF704703F03C
:1006B0000046520043EB030313F4801F08BF013DC3
:1006C000F7D043EA0603704794EA0C0F0CEA13557F
:1006D00018BF95EA0C0F0CD050EA410618BF52EA39
:1006E0004306D1D181EA030101F000414FF000003F
:1006F00070BD50EA410606BF1046194652EA43064D
:1007000019D094EA0C0F02D150EA013613D195EAC0
:100710000C0F05D152EA03361CBF104619460AD108
:1007200081EA030101F0004141F0FE4141F4700112
:100730004FF0000070BD41F0FE4141F4780170BD02
:1007400070B54FF0FF0C4CF4E06C1CEA11541DBF67
:100750001CEA135594EA0C0F95EA0C0F00F0A7F869
:10076000A4EB050481EA030E52EA03354FEA013196
:1007700000F088804FEA03334FF0805545EA1313A9
:1007800043EA12634FEA022245EA111545EA106571
:100790004FEA00260EF000419D4208BF964244F108
:1007A000FD0404F5407402D25B084FEA3202B61A27
:1007B00065EB03055B084FEA32024FF480104FF4FB
:1007C000002CB6EB020E75EB030E22BFB61A75466F
:1007D00040EA0C005B084FEA3202B6EB020E75EB02
:1007E000030E22BFB61A754640EA5C005B084FEA6A
:1007F0003202B6EB020E75EB030E22BFB61A754637
:1008000040EA9C005B084FEA3202B6EB020E75EB41
:10081000030E22BFB61A754640EADC0055EA060E02
:1008200018D04FEA051545EA16754FEA06164FEA45
:10083000C30343EA52734FEAC2025FEA1C1CC0D1F1
:1008400011F4801F0BD141EA00014FF000004FF07E
:10085000004CB6E711F4801F04BF01430020B4F13F
:10086000FD0C88BFBCF5E06F3FF6AFAEB5EB030CF7
:1008700004BFB6EB020C5FEA500C50F1000041EBF4
:10088000045170BD0EF0004E4EEA113114EB5C04C1
:10089000C2BFD4EB0C0541EA045170BD41F4801194
:1008A0004FF0000E013C90E645EA060E8DE60CEA9C
:1008B000135594EA0C0F08BF95EA0C0F3FF43BAFB9
:1008C00094EA0C0F0AD150EA01347FF434AF95EA70
:1008D0000C0F7FF425AF104619462CE795EA0C0F54
:1008E00006D152EA03353FF4FDAE1046194622E721
:1008F00050EA410618BF52EA43067FF4C5AE50EAFB
:1009000041047FF40DAF52EA43057FF4EBAE12E7EA
:100910004FF0FF3C06E000BF4FF0010C02E000BFCB
:100920004FF0010C4DF804CD4FEA410C7FEA6C5CAE
:100930004FEA430C18BF7FEA6C5C1BD001B050EA51
:10094000410C0CBF52EA430C91EA030F02BF90EA3C
:10095000020F0020704710F1000F91EA030F58BFFB
:10096000994208BF90422CBFD8176FEAE37040F05D
:10097000010070474FEA410C7FEA6C5C02D150EAFB
:10098000013C07D14FEA430C7FEA6C5CD6D152EAB6
:10099000033CD3D05DF8040B704700BF844610467B
:1009A00062468C461946634600E000BF01B5FFF77A
:1009B000B7FF002848BF10F1000F01BD4DF808ED4A
:1009C000FFF7F4FF0CBF012000205DF808FB00BF1B
:1009D0004DF808EDFFF7EAFF34BF012000205DF875
:1009E00008FB00BF4DF808EDFFF7E0FF94BF0120C2
:1009F00000205DF808FB00BF4DF808EDFFF7CEFFC3
:100A000094BF012000205DF808FB00BF4DF808ED01
:100A1000FFF7C4FF34BF012000205DF808FB00BFD2
:100A20004A0011D212F5001211D20DD56FF478736D
:100A3000B3EB62520ED44FEAC12343F0004343EAC2
:100A4000505323FA02F070474FF00000704750EA0D
:100A5000013002D14FF0FF3070474FF00000704777
:100A60004FEA4102B2F1E04324BFB3F5001CDCF1D0
:100A7000FE5C0DD901F0004C4FEAC0024CEA507008
:100A8000B2F1004F40EB830008BF20F00100704737
:100A900011F0804F21D113F13872BCBF01F000403A
:100AA000704741F480114FEA5252C2F11802C2F16C
:100AB000200C10FA0CF320FA02F018BF40F00100ED
:100AC0004FEAC1234FEAD32303FA0CFC40EA0C009F
:100AD00023FA02F34FEA4303CCE77FEA625307D1DC
:100AE00050EA01331EBF4FF0FE4040F44000704713
:100AF00001F0004040F0FE4040F40000704700BFAD
:100B000080F0004002E000BF81F0004142001FBFC2
:100B10005FEA410392EA030F7FEA226C7FEA236CCB
:100B20006AD04FEA1262D2EB1363C1BFD2184140C0
:100B300048404140B8BF5B42192B88BF704710F056
:100B4000004F40F4000020F07F4018BF404211F0F9
:100B5000004F41F4000121F07F4118BF494292EA61
:100B6000030F3FD0A2F1010241FA03FC10EB0C008D
:100B7000C3F1200301FA03F100F0004302D549421A
:100B800060EB4000B0F5000F13D3B0F1807F06D3C7
:100B900040084FEA310102F10102FE2A51D2B1F1BF
:100BA000004F40EBC25008BF20F0010040EA0300B4
:100BB0007047490040EB0000013A28BFB0F5000F34
:100BC000EDD2B0FA80FCACF1080CB2EB0C0200FAEA
:100BD0000CF0AABF00EBC25052421843BCBFD04039
:100BE0001843704792F0000F81F4000106BF80F4B3
:100BF00000000132013BB5E74FEA41037FEA226C76
:100C000018BF7FEA236C21D092EA030F04D092F040
:100C1000000F08BF0846704790EA010F1CBF002074
:100C2000704712F07F4F04D1400028BF40F00040D1
:100C3000704712F100723CBF00F50000704700F0F1
:100C4000004343F0FE4040F4000070477FEA226218
:100C500016BF08467FEA23630146420206BF5FEAE9
:100C6000412390EA010F40F4800070474FF00003E9
:100C700004E000BF10F0004348BF40425FEA000CB0
:100C800008BF704743F0964301464FF000001CE058
:100C900050EA010208BF70474FF000030AE000BFAE
:100CA00050EA010208BF704711F0004302D54042EC
:100CB00061EB41015FEA010C02BF8446014600205E
:100CC00043F0B64308BFA3F18053A3F50003BCFA79
:100CD0008CF2083AA3EBC25310DB01FA02FC634426
:100CE00000FA02FCC2F12002BCF1004F20FA02F22D
:100CF00043EB020008BF20F00100704702F1200220
:100D000001FA02FCC2F1200250EA4C0021FA02F280
:100D100043EB020008BF20EADC7070474FF0FF0C85
:100D20001CEAD0521EBF1CEAD15392EA0C0F93EA80
:100D30000C0F6FD01A4480EA010C400218BF5FEA22
:100D400041211ED04FF0006343EA501043EA511195
:100D5000A0FB01310CF00040B1F5000F3EBF49008F
:100D600041EAD3715B0040EA010062F17F02FD2A93
:100D70001DD8B3F1004F40EBC25008BF20F0010076
:100D8000704790F0000F0CF0004C08BF49024CEA8D
:100D9000502040EA51207F3AC2BFD2F1FF0340EA1F
:100DA000C250704740F400004FF00003013A5DDC90
:100DB00012F1190FDCBF00F000407047C2F10002D1
:100DC000410021FA02F1C2F1200200FA02FC5FEABE
:100DD000310040F1000053EA4C0308BF20EADC7008
:100DE000704792F0000F00F0004C02BF400010F47A
:100DF000000F013AF9D040EA0C0093F0000F01F027
:100E0000004C02BF490011F4000F013BF9D041EA48
:100E10000C018FE70CEAD15392EA0C0F18BF93EA4A
:100E20000C0F0AD030F0004C18BF31F0004CD8D174
:100E300080EA010000F00040704790F0000F17BFFB
:100E400090F0004F084691F0000F91F0004F14D041
:100E500092EA0C0F01D142020FD193EA0C0F03D199
:100E60004B0218BF084608D180EA010000F000409C
:100E700040F0FE4040F40000704740F0FE4040F477
:100E8000400070474FF0FF0C1CEAD0521EBF1CEA16
:100E9000D15392EA0C0F93EA0C0F69D0A2EB030234
:100EA00080EA010C49024FEA402037D04FF08053CE
:100EB00043EA111143EA10130CF000408B4238BF93
:100EC0005B0042F17D024FF4000C8B4224BF5B1AA1
:100ED00040EA0C00B3EB510F24BFA3EB510340EAEF
:100EE0005C00B3EB910F24BFA3EB910340EA9C009D
:100EF000B3EBD10F24BFA3EBD10340EADC001B010D
:100F000018BF5FEA1C1CE0D1FD2A3FF650AF8B42B0
:100F100040EBC25008BF20F0010070470CF0004CBD
:100F20004CEA50207F32C2BFD2F1FF0340EAC250E8
:100F3000704740F400004FF00003013A37E792F0A9
:100F4000000F00F0004C02BF400010F4000F013A07
:100F5000F9D040EA0C0093F0000F01F0004C02BF02
:100F6000490011F4000F013BF9D041EA0C0195E76B
:100F70000CEAD15392EA0C0F08D142027FF47DAF04
:100F800093EA0C0F7FF470AF084676E793EA0C0FF4
:100F900004D14B023FF44CAF08466EE730F0004CF2
:100FA00018BF31F0004CCAD130F000427FF45CAF82
:100FB00031F000437FF43CAF5FE700BF4FF0FF3CF0
:100FC00006E000BF4FF0010C02E000BF4FF0010C43
:100FD0004DF804CD4FEA40024FEA41037FEA226C0C
:100FE00018BF7FEA236C11D001B052EA530C18BF2E
:100FF00090EA010F58BFB2EB030088BFC81738BF93
:101000006FEAE17018BF40F0010070477FEA226C80
:1010100002D15FEA402C05D17FEA236CE4D15FEA7C
:10102000412CE1D05DF8040B704700BF84460846B0
:101030006146FFE70FB5FFF7C9FF002848BF10F171
:10104000000F0FBD4DF808EDFFF7F4FF0CBF0120B6
:1010500000205DF808FB00BF4DF808EDFFF7EAFF40
:1010600034BF012000205DF808FB00BF4DF808EDFB
:10107000FFF7E0FF94BF012000205DF808FB00BFF0
:101080004DF808EDFFF7D2FF94BF012000205DF876
:1010900008FB00BF4DF808EDFFF7C8FF34BF012083
:1010A00000205DF808FB00BF4FEA4002B2F1FE4F9E
:1010B0000FD34FF09E03B3EB12620DD94FEA00231A
:1010C00043F0004310F0004F23FA02F018BF4042F3
:1010D00070474FF00000704712F1610F01D14202DA
:1010E00005D110F0004008BF6FF0004070474FF08E
:1010F0000000704742000ED2B2F1FE4F0BD34FF00A
:101100009E03B3EB126209D44FEA002343F000437D
:1011100023FA02F070474FF00000704712F1610FA0
:1011200001D1420202D14FF0FF3070474FF0000072
:10113000704700BF38B50022002304460D46FFF774
:1011400047FC28B920462946BDE8384000F00AB8D7
:10115000204605F1004100F005F8404261EB4101F5
:1011600038BD00BFD0B500220B4B06460F46FFF737
:10117000BDF9FFF755FC0446FFF73EF90022074B87
:10118000FFF7B4F902460B4630463946FEF7F6FF44
:10119000FFF746FC2146D0BD0000F03D0000F041C5
:1011A00038B50C46054600212046FFF755FF48B9E3
:1011B000AB7E3BB120462969FFF7B0FD6969FFF7B7
:1011C000A5FC0446204638BDF8B5076804463946F4
:1011D0008068FFF799FC0F49054620F00040FFF7B3
:1011E0003BFFA0B96668E0683146FFF78DFC2946F1
:1011F000FFF748FE014620613846FFF78FFD0146A4
:101200003046FFF781FC60610120A076F8BD002028
:10121000FCE700BF17B7D13838B5044603F020FE0D
:101220000A21204603F0BAFC40B9204603F05AFDDB
:1012300085B2204603F01AFF284638BD0025F8E79E
:1012400010B51148FFF7E8FFFFF714FD0F49FFF74E
:1012500065FD0F49FFF716FE0E490446FFF7FCFE39
:1012600078B920460C49FFF715FF50B909492046C7
:10127000FFF74AFC0949FFF751FD0949FFF702FE54
:1012800010BD0848FCE700BFF80800203333534086
:1012900000F07F45CDCCCC3D666646400000C8429C
:1012A0000000404000C079C408B5FFF7C9FFBDE8A1
:1012B000084001460148FFF773BF00BF54000020FB
:1012C00010B51148FFF7A8FFFFF7D4FC0F49FFF74F
:1012D00025FD0F49FFF7D6FD0E490446FFF7BCFE7A
:1012E00030B920460C49FFF7D5FE10B10A4C00E09A
:1012F000084C20460749FFF707FC0849FFF70EFD99
:101300000749FFF7BFFD10BDC80800203333534025
:1013100000F07F45CDCCCC3D66664640000096434C
:101320000000404008B5FFF7CBFFBDE8084001468C
:101330000148FFF735BF00BF380000200022034BF3
:101340001B685A625A6A8242FCD37047E407002045
:1013500038B50024134B144D1C70144B28461C70D8
:10136000134B40211C60134B1B685C621A6A22F00D
:10137000A0021A621A6A1A62224604F09FF802203A
:10138000FFF7DCFF40210122284604F097F80A20ED
:10139000FFF7D4FF402122462846BDE8384004F03C
:1013A0008DB800BFA4060020000C0140A506002057
:1013B000A8060020E4070020F8B50023164F174EBA
:1013C0003B7004463360FFF7C3FF03F0CFFB0546D5
:1013D0003B78D3B120461249FFF7A0FC1149FFF733
:1013E00095FB1149FFF79AFC1049FFF74BFD356853
:1013F00004462846FFF73AFC01462046FFF78EFCDC
:101400004FF07C51FFF78AFCF8BD03F0AFFB401BA7
:101410001E28DDD90648F7E7A4060020A80600200C
:101420009A99193F33B3A5430000C8420024744978
:10143000000080BF08B5FFF7BFFFBDE808400146C8
:101440000148FFF7ADBE00BF1C00002008B55220C8
:1014500003F0B8FA024A1080FFF708FC08BD00BF8D
:10146000C606002038B5FFF7F1FF00210446FFF75C
:10147000F3FD084D20B10023074C2B80204638BDDA
:1014800021460648FFF78CFE0446FFF733FE80B284
:101490002880F3E7C4060020000080BF0000002081
:1014A00010B50F490446FEF753FE90B120460D4992
:1014B000FEF74EFE78B120460B49FEF749FE60B1BB
:1014C00020460A49FEF744FEB0FA80F04009800049
:1014D00010BD0120FCE70220FAE70320F8E700BF77
:1014E00010C900081BC9000829C9000874CA0008EF
:1014F0000138C0B203289ABF024B53F820000020E5
:10150000704700BF48CD0008013810B503281CD82B
:10151000DFE800F002060E0ABDE81040FFF790BEBB
:10152000BDE81040FFF7CCBEBDE81040FFF78EBF0E
:10153000FFF786FE06490446FFF78EFD00B1054C15
:101540002046BDE81040FFF737BF034810BD00BF7D
:101550000000C8C20000C84100C079C410B50446EC
:10156000FEF700FE2146BDE8104082B26423014828
:1015700006F005BB9C07002000B552209FB003F089
:1015800021FA78210346054A684609F02FF8684693
:10159000FFF7E4FF1FB05DF804FB00BF34C900088B
:1015A0000138C0B203289ABF024B53F8200002480A
:1015B000704700BF38CD000848C9000870B5ACB00E
:1015C000FFF7EEFF0C460546154920461646FFF785
:1015D000A5FB0BF065F9124904463046FFF79EFB68
:1015E0000BF05EF9642390FBF3F103FB1102002A78
:1015F000B8BF5242CDE9021294FBF3F203FB12444E
:10160000002CB8BF64422B46A021CDE9002404A8D9
:10161000044A08F0EBFF04A8FFF7A0FF2CB070BD50
:101620000000C84250C90008F0B5B7B01E460C46CD
:10163000FFF7B6FF2649074620461546FFF76EFB23
:101640000BF02EF9224904462846FFF767FB0BF002
:1016500027F9204905463046FFF760FB0BF020F9DB
:101660001C4906463C98FFF759FB0BF019F91A4B39
:1016700090FBF3F103FB1102002AB8BF5242CDE9FF
:10168000061296FBF3F203FB12666423002EB8BF2A
:101690007642CDE9042695FBF3F203FB1255002DAB
:1016A000B8BF6D42CDE9022594FBF3F203FB12446F
:1016B000002CB8BF64423B46B421CDE9002409A800
:1016C000064A08F093FF09A8FFF748FF37B0F0BDBE
:1016D0000000C8420024744940420F007AC9000843
:1016E00008B50346042B084605D8022B10D8012B59
:1016F00003D0022B05D0002009E00649FFF7CAFC01
:1017000002E00021FFF7BCFC003818BF012008BD33
:101710000021F3E70000C8C22DE9F34180460846E6
:10172000FFF7E6FE0D461746044628B91E4802B0EC
:10173000BDE8F041FFF712BF0846FFF7E5FE064699
:1017400001462846FFF7CCFF08B91848EFE7B8F183
:10175000010F0DD100233A463146284626606760C6
:10176000A4F81880A37602B0BDE8F041FFF726BFC9
:10177000B8F1020F13D1237E0BB90D48D7E701232F
:101780002046A660E7606376FFF71EFD50B16369EF
:101790003A460093314628462369FFF745FF02B0D9
:1017A000BDE8F0810348C2E7BCC90008D1C9000800
:1017B000E8C90008FFC9000800232DE9F041012411
:1017C0004FF06408A6B0204F8DF81D308DF81E3004
:1017D0008DF81F300DF11D030093C02223465221C6
:1017E0003846CDE9014804F0A7F90DF11E0305467E
:1017F0000093C122234652213846CDE9014804F026
:101800009BF90DF11F0306460093C2222346522185
:101810003846CDE9014804F08FF99DF81F30782152
:1018200004939DF81E30094A03939DF81D300096DD
:10183000CDE901032B4608A808F0D8FE08A8FFF759
:101840008DFE26B0BDE8F0817408002013CA0008A0
:1018500070B52E4908F05EFF0446002855D02C498B
:10186000FEF776FC38B901222A4B2B481A70BDE8E6
:101870007040FFF773BE20462849FEF769FC18B98F
:10188000244B18702648F2E720462649FEF760FCF4
:1018900018B9BDE87040FFF76FBE1C49002008F082
:1018A00039FF1A490546002008F034FF064605B105
:1018B00008B91D48DBE72846FFF7F2FD054630462C
:1018C00007F0C8FFFFF7CCF8184906462046FEF798
:1018D0003FFC68B9324629460120FFF71DFF20462C
:1018E0001349FEF735FC80B9BDE87040FFF764BFCF
:1018F00020461049FEF72CFC18B932462946022032
:10190000EBE70D48FFF72AFEE9E770BD4ECA000875
:1019100050CA0008CD06002056CA000861CA000857
:1019200066CA000870CA00087ACA00088BCA000894
:10193000A9CA000891CA000897CA0008F0B5274F45
:10194000B1B027493868FFF7E9F90AF0A9FF24493F
:101950000446F868FFF7E2F90AF0A2FF20490546BD
:101960007868FFF7DBF90AF09BFF1D490646B86867
:10197000FFF7D4F90AF094FF0A2290FBF2F102FB80
:1019800011000028B8BF4042CDE9051096FBF2F1E6
:1019900002FB1166002EB8BF7642CDE9031695FB17
:1019A000F2F194FBF2F302FB115502FB1344002DFC
:1019B000B8BF6D42002CB8BF6442CDE90115094A99
:1019C000A021009408A808F011FE642382B208A99F
:1019D000054806F0D4F831B0F0BD00BFB4060020D1
:1019E00000002041B0CA00089C0700200023094ADB
:1019F0001360094A1360094A1360094A13600023FF
:101A0000084A1370084A1370084A1370084A137082
:101A1000704700BFA00600209C060020980600200A
:101A200094060020930600209206002091060020D4
:101A30009006002038B5FFF737FC0E490446FFF743
:101A400029FB48B10C4D21462868FFF75FF80B4A87
:101A50002860137801331370FFF764FC084C0146CB
:101A60002068FFF753F8074A20601378013313709A
:101A700038BD00BF0000C8C2A006002093060020A9
:101A80009C0600209206002038B50F4B1878C0B194
:101A9000FFF7F0F80D4B01461868FFF7F3F9FFF771
:101AA000C9FC00210446FFF7F5FA48B1084D21466C
:101AB0002868FFF72BF8074A286013780133137062
:101AC00038BD0548EBE700BF93060020A0060020C4
:101AD00094060020900600200000C84138B5FFF7AA
:101AE000C1FC00210446FFF7CBFA48B1054D214661
:101AF0002868FFF70BF8044A286013780133137045
:101B000038BD00BF980600209106002010B51B4B81
:101B1000187800282AD0FFF7ADF8194B014618684D
:101B2000FFF7B0F9174C184B2060187800B3FFF797
:101B3000A1F8164B01461868FFF7A4F9144B606032
:101B40001878B8B1FFF796F8124B01461868FFF7FE
:101B500099F9114BE060187870B1FFF78BF80F4BD3
:101B600001461868FFF78EF9A06010BD0C48D9E750
:101B70000C48E3E70B48ECE70A48F5E7930600203A
:101B8000A0060020B4060020920600209C0600203B
:101B90009106002098060020900600209406002060
:101BA00000C079C4000080BF10B594B01422002199
:101BB0000CA808F094FD142200210DEB020008F09F
:101BC0008EFD1022002101A808F089FD02244FF4A7
:101BD00080330122CDE91143CDE90A234FF4E0130C
:101BE0000AA80E92139305F043F808B172B6FEE707
:101BF0000F23CDE905344FF480630790CDE9083019
:101C0000214605A805F0F6F908B172B6FEE71223E1
:101C100001934FF40043CDE9033001A805F0A6FA83
:101C200008B172B6FEE714B010BD000080B5A4B0D4
:101C300002F07EFFFFF7B8FF102200210BA808F08A
:101C40004EFD944B4FF400519A69934842F01002B4
:101C50009A619A69002402F010020192019A9A692D
:101C6000012642F020029A619A69022502F02002C0
:101C70000292029A9A694FF4602742F004029A6134
:101C80009A6902F004020392039A9A6942F00802E8
:101C90009A619B69002203F008030493049B03F0FC
:101CA0000DFC002240217D4803F008FC4FF4005356
:101CB00079480BA9CDE90B36CDE90D4503F02AFB98
:101CC0004023CDE90D457548754D0BA9CDE90B367F
:101CD00003F020FB734B2846CDE90B440D942B6099
:101CE000AC602E732C75EF616C602E6103F040F9CF
:101CF00008B172B6FEE7CDE90B060D900BA9284698
:101D000002F0F4FF08B172B6FEE7674C674BCDE90D
:101D10000B000D90A0602075606020462360267344
:101D2000E761266103F024F908B172B6FEE70D9071
:101D30000BA92046CDE90B6602F0D8FF064608B194
:101D400072B6FEE7284603F0ABF9204603F0A8F987
:101D5000574C5848584BC0E90266C0E900434FF45D
:101D60008043C0E90666C0E90436066203F0ACFDB4
:101D7000054608B172B6FEE7014610220BA808F02E
:101D8000AEFC4FF0804041F61F434C4CCDE9075567
:101D9000C4E900036323C4E9033580232046A5601A
:101DA000A36105F0C5FB08B172B6FEE74FF480569B
:101DB00020460BA90B9605F0D0FC08B172B6FEE7E1
:101DC000CDE9070007A9204605F0E0FD044608B16B
:101DD00072B6FEE70146102207A808F080FC2146F3
:101DE00010220BA8CDE9054408F079FC4723344DB7
:101DF00034492846C5E900134FF6FF73AC60C5E9C6
:101E00000334AC6105F094FB08B172B6FEE72846D6
:101E100007A9079605F0A1FC08B172B6FEE72848AD
:101E200005F0B2FB08B172B6FEE7CDE9050005A9E1
:101E3000234805F0ABFD08B172B6FEE701230B9015
:101E4000CDE90C300E9004221D480BA905F0F0FBE3
:101E5000044608B172B6FEE7024601461E2003F0B2
:101E6000A1F91E2003F0CEF907F0FEFA4FF4E1339A
:101E70001548164AC0E90244C0E900230C23046156
:101E8000C0E90534C46105F04BFE024600B372B6EA
:101E9000FEE700BF0010024000100140000C0140AE
:101EA000F808002000240140C80800200028014054
:101EB0000054004074080020A08601002C08002077
:101EC000E4070020000800409C0700200038014083
:101ED0000146252003F066F9252003F093F96420DC
:101EE00002F04AFE6423032252212A4803F068FFCD
:101EF000002849D12848FFF731FB522002F00AFDA3
:101F0000642002F039FE0421244805F0CDFC244869
:101F100005F004FA01222349234806F048F8234833
:101F2000FFF71CFB224EDFF88C80234F337853B130
:101F300072B641460BA808F0BCFC0023337062B6B1
:101F40000BA8FFF785FC39781C4A1D4D1D4C01F08C
:101F5000FF03D9B113781BB100231370FFF76AFD9B
:101F60002B781BB100232B70FFF78EFD2378002BFD
:101F7000DCD000232370FFF7B1FDFFF7C7FDFFF7AB
:101F8000DDFCFFF733FDD1E70F48B4E713702B708A
:101F90002370F6E77408002004CB0008E407002053
:101FA0002C0800209A0700209C07002028CB00085E
:101FB000CE060020D2060020CD060020CC06002050
:101FC000CB060020CA06002015CB00080368B3F139
:101FD000804F25D101200521124A138801339BB27D
:101FE0001380114B187013889BB2B3FBF1F101EB16
:101FF00081015B1A9BB20BB90C4B18700A21138834
:102000009BB2B3FBF1F001FB10339BB213B901217A
:10201000074B197013889BB2632B84BF0023138076
:10202000704700BFC8060020CC060020CB06002069
:10203000CA06002002681C4B70B59A42044615D1AE
:10204000037F022B12D1194E04213378184D73B936
:1020500005F08FF9236828601A6A22F0A0021A623C
:102060001A6A42F020021A620123337070BD05F033
:1020700080F9104B186019682A681B68914229681A
:102080000D4A38BF03F580335B1A136023681A6A60
:1020900022F0A0021A621A6A1A6200230122337027
:1020A000064B1A70E2E700BF00080040A5060020BA
:1020B000B0060020AC060020A8060020A4060020E0
:1020C00038B50268164B9A4229D1164B164C1A782D
:1020D00023880A2A9BB201D00D2A10D1C3B1002255
:1020E00023881249124D9BB2CA542B7823B9114848
:1020F00008F0DFFB01232B700023238008E0622B14
:10210000FAD823889BB2591C89B221800749CA5446
:102110000122BDE838400349074805F048BF38BDF3
:10212000003801409A070020D00600203607002022
:10213000CE060020D20600209C07002072B6FEE7E3
:102140000E4B82B09A6942F001029A619A6902F0DC
:1021500001020092009ADA6942F08052DA61DB698A
:10216000074A03F080530193019B536823F0E06317
:1021700043F00073536002B0704700BF001002408C
:1021800000000140102210B5044688B00DEB02009B
:10219000002108F0A4FA23681B4A93421CD11B4B70
:1021A0009A6942F400729A619A6902F4007200928C
:1021B000009A9A6942F004029A619B6903F0040351
:1021C0000193019B012304930323114804A9059360
:1021D00003F0A0F808B010BD0E4A9342FAD10B4BA1
:1021E0009A6942F480629A619A6902F4806202926A
:1021F000029A9A6942F004029A619B6903F004030F
:102200000393039B0223DEE70024014000100240F9
:102210000008014000280140102210B5044688B093
:102220000DEB0200002108F05AFA2268194B9A427D
:102230002ED103F5DE339A69174842F008029A61FD
:102240009A6904A902F008020192019A9A6942F07F
:1022500001029A619A6902F001020292029ADA6915
:1022600042F40012DA61DB690C4A03F400130393B1
:10227000039B536843F0E06343F00203536012236F
:102280004FF44072CDE904230323079303F042F88F
:1022900008B010BD00540040000C01400000014097
:1022A000102210B5044688B000210DEB020008F0A2
:1022B00016FA2368B3F1804F14D103F50433DA69B9
:1022C0001C2042F00102DA61DB69002203F0010305
:1022D00001930F21019B02F065FF1C2002F092FF89
:1022E00008B010BD0E4A9342FAD10E4B0E48DA697F
:1022F00004A942F00402DA61DA6902F004020292EF
:10230000029A9A6942F008029A619B6903F00803F5
:102310000393039B8023049302F0FCFFE0E700BFDC
:102320000008004000100240000C014010B50446B7
:1023300086B01022002102A808F0D1F92268174BBC
:102340009A4228D103F558439A69154842F48042CD
:102350009A619A6902A902F480420092009A9A69ED
:1023600042F004029A619B694FF4007203F0040387
:102370000193019B0223CDE902230323059302F07D
:10238000C9FF4FF4806100230548CDE9021302A97B
:10239000049302F0BFFF06B010BD00BF003801403B
:1023A00000080140014805F09FBC00BF9C070020C9
:1023B000FEE7FEE7FEE7FEE7FEE77047704770477F
:1023C00002F0C8BB014803F03FBE00BF4C12002022
:1023D000014804F0E7BF00BF2C080020014804F0CA
:1023E000E1BF00BFE40700200120704708B508F0F6
:1023F00033FA162303604FF0FF3008BD08B508F02C
:102400002BFA16230360FEE770B50D4614460E4600
:10241000731B9C4201DC204670BDAFF3008006F8C0
:10242000010BF5E770B50D4614460E46731B9C4232
:1024300001DC204670BD16F8010BAFF30080F5E714
:102440004FF0FF3070474FF4005300204B6070474F
:1024500001207047002070470B4A0346116810B5F1
:1024600009B90A491160106809490A4C0344091B5B
:102470008B4206D908F0F0F90C2303604FF0FF30CF
:1024800010BD1360FCE700BF280900207016002073
:10249000005000200004000070470000FFF7FCFF20
:1024A0000B480C490C4A002302E0D458C4500433B2
:1024B000C4188C42F9D3094A094C002301E0136087
:1024C0000432A242FBD308F0CDF9FFF7AFFB70470F
:1024D0000000002074060020FCCF000874060020D5
:1024E00070160020FEE76FF062007047152906D8CD
:1024F000044BCB40DB0702D50174002070476FF01E
:10250000070070470B00300010B50A460C46092141
:1025100002F0B0FA18B9237803F00103237010BD5C
:1025200001F053BE01F030BD01F035BE0023F7B518
:102530000C46174601210DF1070206468DF80730BB
:1025400002F098FA0546D8B9012F9DF8073026D138
:10255000042C3AD8DFE804F003171A1D200043F0DA
:1025600010049C420CD022460121304602F06CFA45
:10257000054628B93046716986F83041FFF7D0FF2B
:10258000284603B0F0BD43F02804EAE743F0040412
:10259000E7E743F04004E4E743F08004E1E7042C7C
:1025A00013D8DFE804F00306090C0F0003F0EF0472
:1025B000D7E703F0D704D4E703F0FB04D1E703F037
:1025C000BF04CEE703F07F04CBE76FF00305D7E746
:1025D000002313B50C460DF1070201218DF80730D9
:1025E00002F048FA78B99DF80730C3F30012227060
:1025F000C3F3C002A270C3F380026270C3F38012FF
:10260000DB09E270237102B010BD37B50D460DF144
:102610000202F821044602F047FA70B9042120466C
:1026200001AA02F04EFA40B9BDF802201AB1019B8E
:10263000B3FBF2F32B602B68A36103B030BD037FC3
:1026400000200B70704737B50D460DF106022021B2
:10265000044602F029FA28B9BDF8063023B9236AE6
:102660002B60207703B030BDDB002B602362012399
:102670002377F7E70529F8B504460E46154635D801
:1026800062B100EB81035A6B01210023701E042804
:1026900007D8DFE800F00E171A1D240011460123A9
:1026A000F4E784F828103444E5B984F82850002071
:1026B00007E044212046C2F34F2202F0D0F900285F
:1026C000F1D0F8BD84F82A10EDE784F82B10EAE782
:1026D000FE225B006021204602F0CFF9EFE7EF22F7
:1026E0001B01F7E7012384F82830E0E76FF00300CF
:1026F000E7E705298DBF0023401890F828306FF0D8
:10270000030098BF00201370704770B5431893F80A
:10271000283004460E46154623B900EB8106726345
:10272000002013E005291AD8DFE801F0030811138F
:102730001515426304EB86046563F1E74421C2F397
:102740004F22204602F08BF90028F3D070BDC263FF
:10275000F0E70264EEE76421C2F34F22F1E76FF085
:102760000300F3E737B50446154605292AD8DFE804
:1027700001F0030614161818436B2B601FE0442168
:102780000DF1060202F090F9D0B9BDF8062053020F
:102790008AB12B60A36301230FE0C36BEDE7036CE9
:1027A000EBE764210DF1060202F07EF940B9BDF8B5
:1027B00006305B02E1E7A26B2A6084F82930002032
:1027C00003B030BD6FF00300FAE737B50D460DF1E9
:1027D00007020121044602F04DF938B99DF807308F
:1027E00084F83031DB092B7084F84C3003B030BDF5
:1027F0002DE9F843037C0C4601F8083B0546FFF73A
:1028000004FF70BB207304F110012846FFF71BFF83
:1028100038BB284604F1140100F01BFC08BB064637
:1028200004F1240705F1270904F117083A46284660
:10283000B1B2FFF797FFA0B919F8013F0136062E94
:1028400008F8013F07F10407F0D1284604F13C01E4
:10285000FFF7BBFF28B92846211DBDE8F84301F06A
:102860001CBDBDE8F8830000F0B5002293B08821BC
:10287000054602F0E9F84FF47A72A5F852214FF4B8
:10288000C8720023A5F85421504A2846C5F858219B
:102890004F4A85F8F030C5F8D4202B6202A9FFF723
:1028A000A7FF044670B9ADF8080005F1100702AEA5
:1028B0000FCE0FC70FCE0FC70FCE0FC796E80F0072
:1028C00087E80F00434B0126C5F834314FF4FA7303
:1028D000A5F838314FF420633246A5F83C31802109
:1028E000284685F8506102F0AFF832460746FF21CE
:1028F000284602F0A9F8002207431146284602F0B4
:10290000A3F83C4364B2912104430DF10702284629
:1029100002F0B0F89DF8073064B285F83A313246DB
:1029200000210443284602F08FF864B20022FF2100
:102930000443284602F088F864B204430022802150
:10294000284602F081F864B2204340B200283BD010
:1029500013B0F0BD0028FBD1A1B2012228460134FA
:10296000FFF788FE062CF5D10028F1D10446024677
:10297000688504212846FFF77DFE0028E8D102463D
:1029800005212846FFF776FE0028E1D14FF4901389
:102990004FF48042012128466B63FFF7B6FE002802
:1029A000D6D14FF40C13FF22C5E90F300121284680
:1029B00085F8302102F048F8012385F832310028EB
:1029C000C6D185F81541C3E70446C5E7856B01000C
:1029D000A470090064008403012300F068BD2DE9A0
:1029E000F0428EB00C460C23142104AA054602F0D6
:1029F00014F88446002861D1BDF81620BDF81830BF
:102A0000A075BDF8121052BA5BBA20606060BDF8C4
:102A10001A60B5F8520192B29BB249BA5B025202F7
:102A20002361A18276BAE260B0F57A7F8BB295F825
:102A300031719DF81010B6B20AD070434FF47A7617
:102A400000F5FA70B0FBF6F02E7F002E3AD186B278
:102A5000002F41D0B001C0B2B608E0750DF10F00F3
:102A60002681CDE90040284601F06CFE844628BB53
:102A70009DF80FE005F1500684F818E007AF0FCE7F
:102A80000FC796E80700E37D87E80700D4E9030154
:102A9000A28AD4F808906468CDE90A01CDE9084912
:102AA000503507ACADF830208DF833308DF834E078
:102AB0000FCC0FC597E8070086E8070060460EB008
:102AC000BDE8F0822E8C5E43B2EB262F4FEA262C17
:102AD00004D157B948F6E0260020BEE780B2504343
:102AE000A2EB0C06B0FBF6F0B1E742F2B826B1E774
:102AF000F7B517460E210DF106021D46064601F0F8
:102B0000D3FF0A4CBDF8063004EA43433B6050B99A
:102B10000C2130460DF1060201F0C6FFBDF806306B
:102B200004EA43442C6003B0F0BD00BF0000FE1F68
:102B300073B590F8DA300646013B022B0C4634D8C8
:102B400001AB6A460121FFF7D3FF009B0546B3F5B1
:102B50007F0F03D8019BB3F57F0F23D915BB34B189
:102B60003046134902B0BDE8704001F0FBBB0422BF
:102B7000FF21304601F068FF2A46044670213046A6
:102B800001F062FF2A46FF210443304601F05CFF5A
:102B900064B22A4604438021304601F055FF64B2F6
:102BA000044365B2284602B070BD0025FAE700BFB5
:102BB0007400002037B5044601228021057C01F015
:102BC00043FF0122FF21204601F03EFF0022204664
:102BD000114601F039FF912194F83A21204601F085
:102BE00033FF01220021204601F02EFF0022FF21A9
:102BF000204601F029FF00228021204601F024FF19
:102C0000012D23D0032D31D0BDBB01222946204602
:102C100001F01AFF01238DF80730A8B905469DF889
:102C200007300135DB070AD548B9B5F5FA6F27D06B
:102C300001460DF10702204601F01CFFEFE7B5F554
:102C4000FA6F08BF6FF0060003B030BD18B929460F
:102C50002046FFF76DFF02220021204601F0F4FE1E
:102C60000028F1D1042384F83231EDE718B90121AD
:102C70002046FFF75DFF0422EEE76FF00700E3E771
:102C80006FF00600E0E738B5057C044625B1204624
:102C900000F04FFD28B138BDFFF78CFF0028F6D0BB
:102CA000F9E7002DF7D1032384F83231F3E773B548
:102CB0000646002501220B21304601F0C5FE002208
:102CC00004460B21304601F0BFFE132104430DF1F1
:102CD0000702304601F0CEFE9DF8073064B204438F
:102CE00001355B0760B2EDB205D0032D08D0002896
:102CF000E0D002B070BD032D08BF6FF00B00F8E705
:102D00006FF00B00F5E738B50023037404460D4659
:102D1000FFF7B9FF50B929462046FFF760FE28B9F2
:102D200001462046BDE83840FFF7C1BF38BD152930
:102D300070B5054616461C4667D10122FF2101F0F9
:102D400083FE002204461146284601F07DFE002243
:102D5000FF210443284601F077FE64B2012280215E
:102D60000443284601F070FE64B202228521044328
:102D7000284601F069FE64B20422FF21044328467C
:102D800001F062FE64B20022CD210443284601F026
:102D90005BFE64B21122CC210443284601F054FEAC
:102DA00064B20722FF210443284601F04DFE64B2BD
:102DB0000022BE210443284601F046FE64B20622EA
:102DC000FF210443284601F03FFE64B20922CC21D2
:102DD0000443284601F038FE64B20022FF21044378
:102DE000284601F031FE64B20122FF210443284647
:102DF00001F02AFE002264B204431146284601F085
:102E000023FE64B2204340B270BD042A17D80A21C1
:102E100001F01AFE0028F7D1231E18BF0123EF226C
:102E2000842128461B0101F028FE0028ECD185F8FA
:102E3000DA6001462846BDE87040FFF738BF6FF002
:102E40000A00E1E770B594B005464022002104A8CD
:102E500007F045FC002301212846ADF806308DF827
:102E600003308DF80430029300F0B5FC95F814217E
:102E700095F81311012A04D840F0AD80202940F2C2
:102E8000AC80284601AA02A900F02CFB04460028C9
:102E900040F09E8095F85031002B40F0A280D5F88C
:102EA0004C11284601F05EFA0446002840F090805C
:102EB0000346014604222846FFF739FF044600284E
:102EC00040F086800122FF21284601F0BDFD8421CB
:102ED00006460DF10602284601F0E6FD22460643AD
:102EE000FF21284601F0B0FD76B2064374B2002CF3
:102EF0006ED1BDF8063028461B01C5F8D43004A9B0
:102F0000FFF776FC0446002862D128460DF1030144
:102F1000FFF7FAFA044600285AD19DF8033005F16C
:102F2000100604AC85F831310FCC0FC60FCC0FC69C
:102F30000FCC0FC694E80F0086E80F000121284649
:102F40000DF1030201F096FD0446002840D19DF8E2
:102F500003300246014685F830312846FFF7E6FA8D
:102F60000446A8BB024602212846FFF7DFFA0446C2
:102F700070BB0323014685F8323128460DF1050266
:102F800001F009F9044618BB9DF8053001212846D7
:102F900085F8E8300DF1050201F0FDF80446B8B9F6
:102FA0009DF805300321284685F8E03003AA00F09B
:102FB000E7FE044660B9039B04212846C5F8E430C7
:102FC00003AA00F0DDFE044610B9039BC5F8DC300F
:102FD000204614B070BD0C2951E7284600F00EF9C8
:102FE00054E701495DE700BF2A02002013B50C46F3
:102FF0000DF10702132101F03DFD9DF8073013F09C
:10300000180F18BF6FF0050003F00702226002B02E
:1030100010BD13B590F8DA300C46042B0BD101A982
:10302000FFF7E4FF019B042B01D1012300E0002303
:10303000237002B010BD142101AA01F01BFD00286D
:10304000F7D19DF80430DB07EFD42070F1E700F0F2
:1030500049BA13B50C460DF10602282101F024FDF2
:1030600060B9BDF80620C2F30B0312F4006F4FF0F5
:10307000FA0218BFA3F580535343236002B010BD7A
:10308000F0B54FEAD20C4FF0FF34664600271C60C3
:1030900002F007028E4200D207B1F0BD845D6645A2
:1030A00003BF1441E4B215463D4614F0010705D0B4
:1030B000012705EBC6051D600136EBE70135082D3C
:1030C0004FEA5404F8D014F0010FF0E7034B8009E5
:1030D00053F82000003818BF01207047200300205B
:1030E000B1EBD20F02F0070310B54FEAD20483BF51
:1030F00001229A40035D6FF0310082BF13430355F4
:10310000002010BD0A460623B02101F06FBC0A461C
:103110000623B02101F081BC2DE9F04F0546894618
:1031200092461C464FF0000885B0109E129F0196F3
:10313000119B984515D1214628463E60FFF7E2FFD6
:10314000E8B9284602A9FFF7E2FF0E9A02ABA218DF
:10315000944214D014F8015B13F8011B8D42F7D090
:103160000BE0324650460E9901ABFFF789FFDDF8C0
:1031700004B0BBF1FF3F05D13E606FF0310005B0F8
:10318000BDE8F08F0F9B0BEB0300FFF79FFF484557
:10319000F2D15A462046FFF7A3FF0BF1010608F1D2
:1031A0000108C5E770B5C0220E4688B0012104466B
:1031B00090F8305101F048FCF0B9204601A9FFF722
:1031C000A2FDC8B90122FF21204601F03DFC98B9BB
:1031D0003246B621204601F067FC68B90246FF215D
:1031E000204601F031FC38B92A460121204601F081
:1031F0002BFC08B984F8305108B070BDF0B50F460B
:103200001646FF21012289B0044601F01DFC02464A
:10321000A8B94F21204601F017FC80B92C224E217D
:10322000204601F011FC024648B9FF21204601F07A
:103230000BFC20B9B422B621204601F005FC002584
:10324000C4F82451A4F82851DEB9354607ABB4229E
:10325000CDE9037306233146CDE9003220460295BD
:1032600004F5927304F59572FFF756FF30B9012308
:1032700084F8137184F8153184F8146109B0F0BD35
:10328000013505F1B400FFF721FF0028DED12C2D18
:10329000F6D1DBE710B541F001020021044601F050
:1032A000D3FB78B9204600F044FA58B901462046CD
:1032B000FFF7FDFC30B9024601462046BDE810404C
:1032C00001F0C2BB10BD2DE9F74F4FF0000B88464F
:1032D0001746FF21012205461E469DF838A09DF89D
:1032E0003C908DF807B001F0AFFB5A4604465946B2
:1032F000284601F0A9FB5A460443FF21284601F065
:10330000A3FB64B2044364B2B8F1000F32D0BAF147
:10331000000F06D0CB2128460C9A01F0ABFB2043CE
:1033200044B2B9F1000F07D0EE2128460DF1070293
:1033300001F0A0FB204344B20122FF21284601F006
:1033400083FB012200210443284601F07DFB64B287
:103350000022FF210443284601F076FB64B29DF869
:1033600007300D9A204323F0100340B2137003B0CE
:10337000BDE8F08FBAF1000F06D03A46CB212846BF
:1033800001F062FB204344B2B9F1000FD4D03346C0
:103390008022EE21284601F070FBCBE72DE9F047B3
:1033A0001546002286B006460F4699468DF817202E
:1033B0001BB390F8308101223046114601F044FBE6
:1033C00004468246F0B940213046FFF763FF0446C9
:1033D000A8B9012D19D10DF117030246CDE902500C
:1033E000CDE90073294603463046FFF76CFF68B10C
:1033F0000446204606B0BDE8F0879846DBE787F82C
:1034000000A0F6E700233B70F3E73870B9F1000F36
:10341000EFD042460121304601F016FB0446002859
:10342000E7D186F83081E4E72DE9F04707460D46FD
:103430001646994686B01BB390F8308102220121CE
:10344000384601F001FB04468246F0B90146384691
:10345000FFF720FF0446A8B9012E19D10DF117037B
:103460000246CDE9020600933146034601953846EF
:10347000FFF729FF68B10446204606B0BDE8F08793
:103480009846DBE785F800A0F6E700232B70F3E70A
:103490002870B9F1000FEFD042460121384601F003
:1034A000D3FA04460028E7D187F83081E4E7F8B57D
:1034B0001D46164600232A46044690F83071FFF751
:1034C0006DFF70B903462A4631462046FFF7ACFF30
:1034D00038B93A460121204601F0B6FA08B984F815
:1034E0003071F8BD00232DE9F04F93B0CDE90A12F9
:1034F000C0F824310122FF21A0F828310546CDE98A
:103500000E33B0F83C818DF834308DF8353001F051
:103510009BFA0446002840F0EF8002464F212846DF
:1035200001F092FA0446002840F0E6802C224E2159
:10353000284601F089FA0446002840F0DD80024662
:10354000FF21284601F080FA0446002840F0D4808C
:10355000B422B621284601F077FA0446002840F04C
:10356000CB8002468021284601F06EFA04460028EE
:1035700040F0C28003460DF1350228460DA9FFF741
:1035800096FF0446002840F0B78005F59573089330
:103590000323B421CDE90203062305F592790EAE8B
:1035A000CDE90031049601464B46284605F5957253
:1035B000FFF7B2FD0446002840F09E8028460DF13A
:1035C00036010E9FFFF7EEFD0446002840F0948080
:1035D000BDF83630434552D9C5F82401A5F8280175
:1035E00007F1B400FFF772FD08B92B2F45D9062368
:1035F000B4224FF0030BCDE9003201214B4628469F
:10360000CDE9027B089A0496FFF786FD98BB284611
:103610000DF136010E9FFFF7C5FD0646002840F06C
:103620008680BDF8363043452DD883464FF0010AD9
:10363000BDF83620424569D2A2EB080282EAE27365
:10364000A3EBE27309930323069305F592735FFAE4
:103650008AF60793079B3A4618689B881090ADF846
:10366000443006210FAB0898FFF70AFD0F9F7B1C23
:103670000BD16FF0310004463EE00137B0E7002681
:10368000B346B246D4E70126FBE707F1B400FFF7E3
:103690001DFD504538D1069B3A46484603F1010BC3
:1036A000FFF71EFD0028E6D1494628460137FFF7FF
:1036B00029FD0028DFD128460DF13601FFF772FD04
:1036C0000028D8D1BDF83610A1EB0802002AB8BFF7
:1036D0005242414514D9099B934217D210A928465A
:1036E000FFF710FD0346BDF8442010980799C5F870
:1036F00024018A8043B11C46204613B0BDE8F08FF8
:10370000CDF818B00992A5E7DDF818B00A9BC3F808
:1037100000B00B9B1E70012385F815310A9B1B68B6
:1037200085F813310B9B1B7885F81431E4E70446C8
:10373000E2E7002337B504464FF4FA658DF8073009
:1037400020460DF10701FFF764FC58B99DF80730DA
:10375000012B07D0013D03D0204601F0BFF9EFE770
:103760006FF0060003B030BD02464FF08043934235
:1037700002D8002013B970479B08F8E7C11891429E
:103780004FEA50009CBFC018521A9B08F2E773B56D
:1037900000228321054601F057F9044690B90646F8
:1037A000832128460DF1070201F064F99DF80730E6
:1037B00004460343DBB22BB90136B6F5FA6FEFD1FD
:1037C0006FF0060401228321284601F03DF92043D1
:1037D00040B202B070BD2DE9F04F002690F8F070B5
:1037E00091B0072F05468846CDE9076600F0828232
:1037F0000122802101F028F901220446FF212846F8
:1038000001F022F9324631460443284601F01CF902
:1038100064B20622FF210443284601F015F964B280
:10382000832104430DF11502284601F023F99DF888
:10383000152064B28321044342F00402284601F0BB
:1038400003F964B20722FF210443284601F0FCF883
:1038500064B2012281210443284601F0F5F864B2E4
:103860000443284601F03AF964B20443012280215E
:10387000284601F0E9F864B2044318F0010B64B281
:1038800000F03C82FA0700F13C826B22942128462A
:1038900001F0DAF806462846FFF779FF9021064343
:1038A00006AA284601F00DF9344364B2242294217B
:1038B00004432846069E01F0C7F864B20443284634
:1038C000FFF765FF64B29021044306AA284601F081
:1038D000F8F8069B64B21BBA2522942104432846BB
:1038E000099301F0B1F864B204432846FFF74FFF93
:1038F00064B2044306AA9021284601F0E2F8069B30
:1039000064B21A0E04431B0CC6F3062A64B2C6F353
:10391000C0368DF828208DF8293018F00203029364
:1039200000F0DB8017F0020940F0D78002229421DA
:10393000284601F089F801902846FFF728FF019BEF
:10394000902103430DF1160228461C4301F092F822
:1039500064B27B2294210443284601F075F864B2D6
:1039600004432846FFF713FF64B2902104430DF18E
:103970001702284601F07EF864B2772294210443AE
:10398000284601F061F864B204432846FFF7FFFEC1
:1039900064B29021044306AA284601F092F8069BDF
:1039A00064B25A0E8DF82C20C3F386428DF82D2078
:1039B000C3F3C6228DF82E20C3F30612DB0003F0FA
:1039C0007803942104438DF82F20284678228DF81F
:1039D000153001F039F864B204432846FFF7D7FEEA
:1039E00064B29021044306AA284601F06AF8069BB7
:1039F0009DF8152064B202EB53728DF83020C3F3AA
:103A000086528DF83120C3F3C6328DF83220C3F3CD
:103A100006228DF83320C3F346029B0103F04003D6
:103A2000942104438DF83420284679228DF81530EE
:103A300001F00AF864B204432846FFF7A8FE64B216
:103A40009021044306AA284601F03BF8069B9DF806
:103A5000152064B202EB93628DF83520C3F3C642A1
:103A60008DF83620C3F306328DF83720C3F34612A3
:103A70009B0003F07C03942104438DF838202846F2
:103A80007A228DF8153000F0DFFF64B20443284637
:103A9000FFF77DFE64B2044306AA9021284601F098
:103AA00010F8069B9DF8152064B202EB93728DF816
:103AB0003920C3F3C6528DF83A20C3F306420443BB
:103AC0008DF83B20C3F34622C3F3860364B28DF81E
:103AD0003C208DF83D308DF83E9018F004030193A2
:103AE00000F011817B0700F10E817B229421284692
:103AF00000F0AAFF81462846FFF749FE902149EAD7
:103B0000000907AA284600F0DCFF44EA09094FFA39
:103B100089F97C22942149EA0004284600F094FFA8
:103B200064B204432846FFF732FE64B29021044396
:103B300008AA284600F0C5FF64B27322942104430A
:103B4000284600F081FF64B204432846FFF71FFEB9
:103B500064B29021044306AA284600F0B2FF069BF7
:103B600064B21B0274229421044328461FFA83F98D
:103B700000F06AFF64B204432846FFF708FE64B20F
:103B80009021044306AA284600F09BFF64B29DF8EA
:103B90001B30752294210443284643EA090900F0AA
:103BA00053FF64B204432846FFF7F1FD64B290214D
:103BB000044306AA284600F084FF069B64B21B0259
:103BC0009BB27622942104432846039300F03CFFE5
:103BD00064B204432846FFF7DAFD64B2044306AA40
:103BE0009021284600F06DFF64B29DF81B20039BD6
:103BF000044364B21343002281212846039300F05A
:103C000023FF0622FF210443284600F01DFF64B273
:103C1000832104430DF11502284600F02BFF9DF887
:103C2000152064B28321044302F0FB02284600F011
:103C30000BFF64B20122FF210443284600F004FF79
:103C400064B2012200210443284600F0FDFE64B264
:103C50000022FF210443284600F0F6FE64B204432C
:103C600000228021284600F0EFFE64B2204340B2DB
:103C7000002840D1039BBBF1000F0CD0F8070AD4F9
:103C80000998BDF8282085F813A185F81461C5F8B6
:103C90002A01A5F82E21029A82B1B9070ED49DF807
:103CA00016200BA985F8F1209DF8172005F1F300E7
:103CB00085F8F220029306F0FCFD029B019AAAB15E
:103CC0007A0713D4079AC5F81821089AC5F81C2159
:103CD0004FEA4922C5F820213BB14FF47A72A3F58F
:103CE000C85353431B095B421BB2EB6047EA08070A
:103CF00085F8F070002011B0BDE8F08F5E46DA461E
:103D00000BE6B24609E64FF000094B4673E740B1B7
:103D100000230138FF2803F1010203D800EB032040
:103D200080B2704713464008F4E7C3B2000A03FAB2
:103D300000F00130704700004FF4FA60074B5A431F
:103D40004FF47A7302F5FA72B2FBF0F0B2FBF3F2C1
:103D500003FB0100B0FBF2F0704700BF002F3A00F8
:103D60004FF47A70054B5A4302F5FA72B2FBF0F247
:103D70004A4302F5FA72B2FBF0F07047002F3A00A6
:103D80002DE9FF4100250229074616468DF803500C
:103D9000ADF804501CD829460DF10202FEF7C4FB11
:103DA000044630B9462138460DF1030200F062FEA8
:103DB00004469DF80300FFF7B8FF81B29DF802208A
:103DC0003846FFF7CDFF3060204604B0BDE8F081F3
:103DD000032918D129460DF10202FEF7A5FB04467E
:103DE000002846D101460DF102023846FEF79CFB41
:103DF000044628B95121384601AA00F055FE044670
:103E0000BDF80400D7E7042935D102A9FEF7E0FB8D
:103E10009DF80B304BB3294638460DF10202FEF7F0
:103E200083FB044618BB5121384601AA00F03CFE32
:103E30000446BDF80400FFF778FF85B2BCB9012144
:103E400038460DF10202FEF76FFB044678B9712186
:103E500038460DF1060200F027FE0446BDF80600C4
:103E6000FFF763FF80B2401BA7E71D46E7E700208E
:103E7000F9E72846A7E728462C46A4E7F0B502292B
:103E80000546164685B01ED800210DF10502FEF745
:103E90004BFB0446A0B99DF8052031462846FFF7A4
:103EA0004BFF83B2B3F5807F8EBFFF2200F1FF325C
:103EB000D2B246212846A5F8D82000F0C5FD044618
:103EC000204605B0F0BD03291FD100210DF10502E8
:103ED000FEF72AFB9DF80520044631462846FFF7E9
:103EE0002BFF80B2FFF713FF0246ADF80600A5F8DE
:103EF000D800002CE4D15121284600F0B0FD044642
:103F00000028DDD1C5F8E460DAE7042939D102A937
:103F1000FEF75EFB9DF80B70B7B1002128460DF14E
:103F20000502FEF701FB04460028C9D151212846AD
:103F30000DF1060200F0B8FD04460028C0D1BDF81E
:103F40000600FFF7F2FE87B2012128460DF10502B7
:103F5000FEF7EAFA04460028B2D19DF80520314662
:103F60002846FFF7E9FE3844FFF7D1FE71210246EB
:103F7000284600F074FD04460028A1D1C5F8DC6095
:103F80009EE76FF003049BE70023F0B585B08DF842
:103F90000330D30705460F46164605D441B9A2F1B2
:103FA0000C03DAB2062A12D96FF0030005B0F0BD97
:103FB000012920D1A2F10803DAB2062AF4D8062B8F
:103FC00019D8DFE803F03718651886189900062B12
:103FD00011D8DFE803F0041029102B102D0018224F
:103FE0005721284600F030FD08225621284600F0CF
:103FF0002BFD0028DAD17408013CE4B2002F00F058
:104000008E80012FD0D10421284601AAFFF7B8FEE7
:1040100038B922467021284600F016FD002800F02D
:10402000B28085F8E060C1E73022D9E74022D7E7C7
:104030005022D5E71022482100F006FD0822472132
:10404000284600F001FD022204463221284600F0F5
:10405000FBFC0C2230210443284600F0F5FC64B23E
:1040600001220443FF21284600F0EEFC302264B216
:10407000044364B23021284600F0E6FC00220443E9
:10408000FF21284600F0E0FC64B2204340B2B0E7D4
:104090002822482100F0D8FC08224721284600F0B9
:1040A000D3FC032204463221284600F0CDFC09222D
:1040B000044364B23021284600F0C6FC01220443C8
:1040C000FF21284600F0C0FC64B20443202264B201
:1040D000D0E73822482100F0B7FC082247212846C3
:1040E00000F0B2FC032204463221284600F0ACFC6A
:1040F0000443082264B2DDE74822114600F0A4FC24
:1041000008224721284600F09FFC03220446322162
:10411000284600F099FC0443072264B2CAE7032151
:10412000284602AAFFF72CFE88B90221284603AAD6
:10413000FFF726FE58B922465021284600F084FC9D
:1041400028B903212846029AFFF798FE10B185F896
:10415000E8602BE702212846039AFFF78FFE85F8D7
:10416000E86000287FF422AF28466969FEF7D8F995
:1041700000287FF41BAF0246012328460DF10301FE
:10418000FFF752F912E704212846019AFFF776FE5D
:1041900085F8E060E5E713B5144629B1012910D090
:1041A0006FF0030002B010BD50210DF1070200F0C6
:1041B00061FC0028F6D19DF8073001335B002370C5
:1041C000F0E770210DF10702F1E700234FF4FA62E6
:1041D000F0B585B0CDE9002344F61F639942064649
:1041E0000F4604D86FF00305284605B0F0BD02A9BC
:1041F000FEF7EEF905460028F6D19DF809209DF856
:104200000830A7F6363413439DF80A2013431BD019
:104210006A4602213046FFF7B3FD00283BD19DF8E6
:1042200008302BB1009B03F24E239C42DAD9E41AEA
:104230009DF80A3023B3009B03F2B223B4EB430F83
:104240004FEA4302CED9A41A9DF80B305BB103218B
:10425000304601AAFFF794FD019B03F525739C42AC
:10426000C0D9C0B9E41A9DF80C30002BBCD0042191
:104270003046A4F22622FFF701FE77610546B3E738
:104280009DF80930002BDFD0009B03F525739C427D
:10429000A8D9E41AD8E70546A6E74FF4FA62002346
:1042A00070B586B0CDE9022340F636330C460B607C
:1042B00004A90646FEF78CF90546002836D19DF87C
:1042C00011209DF8103013439DF81220134319D08C
:1042D0000221304602AAFFF753FD002840D19DF885
:1042E00010302BB1029B03F24E222368134423604B
:1042F0009DF81230EBB1029B03F2B222236803EB6C
:10430000420323609DF81330EBB99DF814305BB184
:1043100001AA04213046FFF733FD019B03F2262258
:10432000236813442360D8B923687361284606B014
:1043300070BD9DF81130002BE4D0029B03F525726F
:1043400023681344DDE703AA03213046FFF718FD75
:10435000039B03F525722368134423600028D4D0FF
:104360000546E3E72DE9F743002406460D462046BF
:1043700015F80480B8F1000F00D010B103B0BDE80B
:10438000F083671CB8F1FF0F15F8079029D1A71C1F
:10439000EB5DB9F1030F36D8DFE809F0020B131B10
:1043A000271D2C44E27802EB0323A6F834313C4667
:1043B000DEE7271D2C44E27802EB0323A6F8363112
:1043C000F5E7271D2C44E27802EB0323A6F83831E9
:1043D000EDE7271D2C44E27802EB0323A6F83C31DD
:1043E000E5E7B8F1040F0ED802344246291901A8B6
:1043F00006F067FA43464946304601AA04EB08072F
:1044000000F0F4FAD3E76FF00300D0E7002373B5B0
:104410000E4613600DF1070105461446FEF70FF92D
:1044200040B99DF807302BB1B38A2A6A53438033D1
:104430001B0A236002B070BD13B5CB68144613602D
:1044400001AAFFF7E3FF18B92368019A1344236018
:1044500002B010BDF8B5B0F85451D0F858010E466E
:10446000DDE9071768438030000A1446454352B11E
:10447000B60206EB5202B2FBF4F202EB42025243E6
:1044800002F50042140C0620069A534301F500423F
:10449000120C0332B2FBF0F2C2EBC202B2F5803F63
:1044A0003CBF0331B1FBF0F103F500433CBFC1EB6E
:1044B000C10101F500414FEA134338BF090C03FB6A
:1044C00003F334BF4943184903EB57030B44B3FBD1
:1044D000F7F3FE229B037F33B3FBF2F34FF47A77BB
:1044E0005C4304F5FA74B4FBF7F405F120002401F1
:1044F00004F5FA748009FFF737F9BC4221BF4FF485
:10450000FA63B4FBF3F3B4FBF7F45B1906462CBF74
:10451000B3FBF4F00020FFF727F9099B864294BF14
:104520001E6018600020F8BD0000F0FF2DE9F04F7C
:1045300005460F4691B007930B6993460893CB68E5
:104540000FAA0B93FFF778FF394628460EAAFFF70C
:104550005DFF48BB4FF47A760F9CD5F8DC3006FB44
:1045600004F101F5004104910E99803495F8E0A022
:10457000099124F0FF0105930A91D5F8E4300F91D9
:104580000499BAF1080F06930CBF02230323090C08
:1045900095F8E820DFF898810C9108D1079BCBF8BB
:1045A0000080C5F84081186011B0BDE8F08F069911
:1045B00028460D93FFF7C0FB5246814605992846D1
:1045C000FFF7BAFB0D9B814403FB09F94FEAC929A8
:1045D00009F5FA7940F27763B9FBF6F903FB09F9BB
:1045E00009F5FA79B9FBF6F9240A09FB04F404F198
:1045F0008003089C4F4974430C9A0C40B4FBF2F4BE
:104600004D4A1B0A944228BF1446012B38BF012390
:104610000C204FF4167258435443FFF7A5F83B7E25
:104620003A894FEA400A002B7FD14249049B0B4054
:1046300003F5FA71414B5A4341F25C23B2FBF3F2AA
:10464000099B7343B3F5481F28BF4FF44813A1EBF0
:104650004303B3FBF6F3B1FBF6F11B02B3FBF1F638
:104660003602C6F58036564306F50046360C06F58A
:10467000803676087643B60B4FF44873734303F5E0
:1046800000431B0C5B4304F50040000C00FB0030B2
:10469000FFF76AF8642203043233B3FBF2F341F20A
:1046A0008837B3FBFAF340F6B53202FB0377244BAD
:1046B0004FF47A7A9F429CBF42F21073B7FBF3F734
:1046C000DDE9053213444FF4FA6203F5FA73B3FBE4
:1046D000F2F2B3FBFAF002F5C812B2FBF0F088BFB9
:1046E0004FF47047FFF740F8000200F5FA70B0FB96
:1046F000FAF0404307FB0700FFF736F8DDE90A123E
:104700000AFB00F0404528BF4046079BCBF800005D
:10471000C5F84001CDE902934FF448732846009351
:1047200001943346FFF796FE3EE74FF48036A3E749
:10473000AE878F020000FFFF666666009A9906004A
:104740000F279F242DE9F04F9B4600238BB0C1F328
:10475000C30990464FF2A10A19460DF10E02044614
:10476000159F8DF80E308DF80F308DF810308DF8C4
:104770001130ADF812300993FDF7BBFF9DF80E50D4
:104780002AFA09FA06460AF0010ADDB100230028D8
:1047900040F099802046149909AB05AAFFF7C6FEA0
:1047A000002840F09280149A099B014653812046CC
:1047B00006AAFDF7D7FF069D25B1059B9D422CBF9C
:1047C0000025012520B90221204604AAFDF791FF0A
:1047D0009DF8106026B3002879D10221204607AA4F
:1047E000FDF7C0FF88B90122FF21204600F02CF917
:1047F00058B9B62120460DF1120200F055F920B942
:104800000246FF21204600F01FF9BDF81230079E36
:104810005B02C4F848311EB19E422CBF002601261F
:1048200028B9032120460DF11102FDF762FF9DF822
:10483000113093B100286BD1BBF1000F03D04FEAC8
:104840000828B8FBFBFB0321204608AAFDF78AFFD6
:10485000089B5B4594BF0023012320B9BAF1000FE8
:1048600037D0FF223A703A780AB914994A81012167
:1048700020460DF10F020193FDF73BFF00BB9DF8B1
:104880000E20019B002A08BF0125B9F1040F17BFB4
:104890009DF80F200122B2FA82F2520984F82F20EB
:1048A0009DF8102084F82E50002A9DF8112008BF92
:1048B0000126002A08BF012384F8306084F83130D3
:1048C0000BB0BDE8F08F1D4682E7354680E7002635
:1048D000ADE709F1FF32092A0AD8DFE802F0050541
:1048E00005090907090B070B0522BBE70422B9E7F5
:1048F000012E01D10322B5E7B9F1040F01D0012B3C
:1049000001D10222AEE7012D16BF00233D703B709E
:104910000023A8E738B5254C254A23680125C3F8AC
:104920005C21642283F86001A3F87621184683F89D
:104930007451FDF7D8FD2068FDF796FF2068FEF75B
:1049400081FA1C4A1C492068FEF746F81B4A1C499C
:104950002068FEF77CFB00212068FDF7C7FD2A4692
:1049600000212068FDF786FE2A4629462068FDF7CB
:1049700081FE294641F699122068FDF7C6FE4FF4E4
:10498000701200212068FDF7C0FE48F2E80120689F
:10499000FDF7C6FD122200212068FDF7C3FD294660
:1049A00020680E22BDE83840FDF7BCBD3003002072
:1049B000740800202C0900202D0900202E09002059
:1049C00030090020074B10B51B68074C83F86001C5
:1049D00021461846FEF797F908B9208910BD002036
:1049E000FCE700BF30030020C40A00201FB503F11C
:1049F00032049BB2CDE90023640002940A460123ED
:104A000090F86011D0F85C0101F006F8002814BF9E
:104A10006FF01300002004B010BD1FB503F1320485
:104A20009BB2CDE90023640002940A46012390F86A
:104A30006011D0F85C0101F07FF8002814BF6FF01E
:104A40001300002004B010BD07B501238DF8072026
:104A50000DF10702FFF7CAFF03B05DF804FB07B5CD
:104A600052BAADF80420022301AAFFF7BFFF03B03A
:104A70005DF804FB0123FFF7D0BFF7B515460DF134
:104A8000070206460F461C46FFF7F4FF50B99DF893
:104A9000073039461D4044EA050230468DF80720AC
:104AA000FFF7D2FF03B0F0BD13B50223144601AAED
:104AB000FFF7B3FF18B9BDF804305BBA238002B02A
:104AC00010BD042313B514460DEB0302FFF7A5FF39
:104AD00010B9019B1BBA236002B010BD08B50220BB
:104AE00000F04AF8002008BD38B50E4B05461A788C
:104AF0004FF47A73B3FBF2F30B4A1068B0FBF3F098
:104B000000F08EFB044658B90F2D09D802462946FD
:104B10004FF0FF3000F046FB2046044B1D6038BDCF
:104B20000120FCE73403002070000020380300203F
:104B3000074A08B51368032043F01003136000F020
:104B40001FFB0F20FFF7D0FFFDF7FAFA002008BD8A
:104B500000200240034A044B11681B780B44136089
:104B6000704700BFE00A002034030020014B1868A2
:104B7000704700BFE00A002038B50446FFF7F6FF93
:104B80000546631C1EBF044B1B78E418FFF7EEFFBD
:104B9000431BA342FAD338BD34030020F7B50026E7
:104BA00004460D460196FFF7E1FF236807469A6821
:104BB000D10508D50120A36A84F8246043F02003BE
:104BC000A36203B0F0BD5A68D20503D4DB6A13F4C4
:104BD000700F3DD03D4B02201E6802F041FB236860
:104BE0003B4A1969B6FBF0F611423A4A51D1D868EE
:104BF000394908424DD1196911425BD1DA68374B06
:104C00001A420CBF142329235E43019BB34223D2D3
:104C10006A1C04D0002D53D1019BB3420AD3019BDF
:104C200001330193F1E76E1C13D065B923681B684B
:104C300098070DD4A36A032043F00403A362002362
:104C400084F82430BDE7FFF791FFC01BA842EDD8E0
:104C5000226813689907E6D56FF012032268136083
:104C6000A36A43F40073A362936803F46023B3F56B
:104C7000602F0CD1237B53B9A36A23F48073A36202
:104C8000A36ADB0403D4A36A43F00103A3620020F8
:104C900097E71969114203D1D968104A11420BD024
:104CA00019690F4A114209D1DB6813420CBF542322
:104CB000FC23A9E72923A7E75423A5E7FC23A3E7BF
:104CC000FFF754FFC01BA842A6D8A8E77000002039
:104CD00024499224922449122449920092244900A2
:104CE000499224000368D86C70470000002373B514
:104CF000019390F824300446012B6CD0012380F8F6
:104D000024304D680268062D086805EB850322D81B
:104D10001F26556B053B9E4025EA060500FA03F366
:104D20002B43536309288B6800EB40054FF00701C4
:104D300029D9D6681E3DA94026EA0101AB400B43A4
:104D4000D360A0F11003012B25D90020002384F8A3
:104D5000243002B070BD0C2D4FF01F0509D8166B22
:104D6000233B9D4026EA050500FA03F32B4313631A
:104D7000D8E7D66A413B9D4026EA050500FA03F3D1
:104D80002B43D362CEE71069A94020EA0101AB4072
:104D90000B431361D9E7114B9A4216D193681B025A
:104DA000D3D49368102843F400039360CDD10C4B07
:104DB0000C4A1B68B3FBF2F30A2253430193019B95
:104DC000002BC2D0019B013BF8E7A36A012043F00E
:104DD0002003A362BAE70220BBE700BF0024014022
:104DE0007000002040420F00002337B50193036894
:104DF00004469A68D20702D5002003B030BD9A68F5
:104E000042F001029A60144B144A1B68B3FBF2F3A0
:104E10000193019BE3B9FFF7A9FE054623689B6850
:104E2000DB07E9D4FFF7A2FE401B0228F6D923686E
:104E30009B6813F00103F1D1A26A012042F0100235
:104E4000A262E26A84F8243042F00102E262D4E70E
:104E5000019B013BDCE700BF7000002040420F00D7
:104E600010B590F824300446012B54D0012380F86B
:104E70002430FFF7B9FF002849D1A36A274A23F459
:104E8000407323F0010343F48073A36223689342C9
:104E900004D123494A6812F4702F2ED1A26A22F459
:104EA0008012A2625A68520541BFA26A22F440529F
:104EB00042F48052A262A26A12F480521CBFE26ADB
:104EC00022F00602E262002284F824206FF002023F
:104ED0001A609A6802F46022B2F5602F13D10F4A6B
:104EE000934205D1A2F58062526812F4702F0AD164
:104EF0009A6842F4A0029A6010BDA26A42F480123D
:104F0000A2624A68CFE79A6842F48012F3E700236E
:104F100084F82430F0E70220EEE700BF00280140CB
:104F20000024014038B5036804469A68D10701D4CB
:104F3000002038BD9A6822F001029A60FFF716FE41
:104F4000054623689B68DB07F2D5FFF70FFE401B81
:104F50000228F6D923689B68DA07F2D5A36A0120F4
:104F600043F01003A362E36A43F00103E362E0E766
:104F7000F8B5044600286DD0836A23B9C36280F86F
:104F80002430FDF7FFF82046FFF7CCFFA36A13F0AB
:104F9000100361D100285FD1A26A616822F48852AF
:104FA00022F0020242F00202E569A668A262227BB8
:104FB0002943B6F5807F41EA420136D0771E7D4213
:104FC0007D412D02277D012F06D182BBA269013AC6
:104FD00045EA423242F400652268B6F5807F5768A0
:104FE00027F4694745EA0705556097681D4D05EAAE
:104FF000070545EA0105956001D0012E02D123691C
:10500000013B1B05D56A25F470052B43D3629268DA
:10501000154B1340994213D10023E362A36A23F096
:10502000030343F00103A362F8BD3546CAE7A26A51
:1050300042F02002A262E26A42F00102E262CBE7A1
:10504000A36A23F0120343F01003A362E36A43F060
:105050000103E3620120E7E7A36A43F01003A362C0
:10506000F8E700BFFDF7E1FFFE0E1FFF10B590F857
:1050700024300446012B11D0012380F82430FFF79F
:1050800051FF38B9A36A23F4885323F0010343F096
:105090000103A362002384F8243010BD0220FCE742
:1050A000002373B5019390F824300446012B62D09D
:1050B000012380F82430FFF735FF2046FFF794FEE8
:1050C000054600282FD1A36A022023F4885323F039
:1050D000020343F00203A362284B1E6802F0C0F8EB
:1050E000B6FBF0F676000196019B03BB226893683D
:1050F00043F008039360FFF739FD064623689A687A
:10510000110718D49A6842F004029A60FFF72EFD46
:10511000064623689B685B0723D4A36A23F0030336
:1051200043F00103A362002384F8243016E0019BBE
:10513000013B0193D8E7FFF719FD801B0A28DDD951
:1051400023689B681807D9D5A36A012523F01203A9
:1051500043F01003A362002384F82430284602B0F1
:1051600070BDFFF703FD801B0A28D2D923689B6816
:105170005A07CED5E8E70225F0E700BF700000200F
:1051800007490302CA6803F4E06322F4E0621204F0
:10519000120C134343F0BF6343F40033CB607047FA
:1051A00000ED00E0154B30B5DC68C4F30224C4F117
:1051B0000703251D042B28BF0423062D4FF0FF35C0
:1051C00094BF0024033C05FA03F321EA0303A5403E
:1051D00022EA0502A340002843EA0203ACBF00F123
:1051E0006040074A4FEA0313DBB2ABBF00F56140F2
:1051F00000F00F0080F80033135430BD00ED00E0E4
:1052000014ED00E0002807DB01234109034A00F008
:105210001F00834042F82130704700BF00E100E0EA
:105220000138B0F1807F0BD24FF0E023F021054A26
:10523000586182F823100020072298611A61704794
:105240000120704700ED00E090F821200346022A7B
:1052500006D0042282630120002283F820207047B8
:105260000268C06B116821F00E011160116821F015
:105270000101116001211A6C01FA02F24260002062
:1052800083F82110E8E7000008B590F82130022BE0
:1052900003D004238363012008BD03681A6822F049
:1052A0000E021A601A6822F001021A60174A93422D
:1052B0001FD0143293421ED0143293421DD01432A8
:1052C00093421DD0143293421DD01432934214BF26
:1052D0004FF080734FF480130D4A5360012380F820
:1052E0002130002380F82030436B03B19847002021
:1052F000D2E70123F0E71023EEE74FF48073EBE7EA
:105300004FF48053E8E74FF48033E5E708000240AC
:10531000000002402DE9F74F00244FF00F0E264603
:10532000DFF884C1614B00F104080A6832FA06F51F
:1053300002D103B0BDE8F08F012505FA06F702EAB5
:10534000070537EA020276D14A68032A07D8013AEC
:10535000022A00F28380DFE802F091969C00122A74
:1053600000F0948069D8112A00F08A80FF2D94BF44
:105370008146C1464FEA8602D9F8007088BF203ABC
:105380000EFA02FA27EA0A0704FA02F21743C9F8EA
:105390000070D1F8049019F0805F4CD0DCF8182030
:1053A00026F0030742F00102CCF81820DCF81820A0
:1053B00007F1804702F00102019207F5803706F0FD
:1053C000030A019A4FEA8A0ABA680EFA0AFB22EA2D
:1053D0000B0B374A904260D002F5806290425ED05B
:1053E00002F5806290425CD002F58062904214BF68
:1053F0000422032202FA0AF242EA0B02BA609A6815
:1054000019F4801F14BF2A43AA439A60DA6819F47A
:10541000001F14BF2A43AA43DA605A6819F4003FF8
:1054200014BF2A43AA435A601A6819F4803F14BF74
:105430002A43AA431A60013677E7DFF878904A4595
:105440000CD014D8A9F580194A4507D009F5702960
:105450004A4503D0A9F580194A4587D18A68D2B157
:10546000012A4FF008040CBF076147617EE7DFF8AF
:1054700048904A45F2D009F58039EDE7CC6875E7E8
:10548000CC68043472E7CC6808346FE7CC680C341D
:105490006CE700246AE7042468E70022AAE70122F7
:1054A000A8E70222A6E700BF001002400004014066
:1054B0000008014000002210000031100AB1016113
:1054C00070470904FBE7016800224B6913F480630D
:1054D00010D06FF480634B612023026380F83D306D
:1054E00080F83E20036C80F83C2043F00403036402
:1054F00001207047184670472DE9F84606460F46CA
:1055000091461D464FEA114A3368BAF1010F0CBFAC
:105510005C699C6927EA0404A4B2B4FA84F46409BF
:10552000A14501D0002025E06A1CEED0FFF71EFB4C
:10553000089BC01AA84201D8002DE5D13368BAF102
:10554000010F0CBF5B699B6927EA03039BB2B3FAA7
:1055500083F35B099945D7D10023202201203363CF
:1055600086F83D2086F83E30326C86F83C3042F0BA
:1055700020023264BDE8F8862DE9F04104460F466A
:10558000164698462568686927EA000080B2C0B1CF
:105590006B695A0517D52B68202243F400732B60E2
:1055A0006FF480636B610023236384F83D2084F8EB
:1055B0003E30236C43F0040323640023012084F86D
:1055C0003C30BDE8F081731CDDD0FFF7CFFAA0EBD3
:1055D0000800B04201D8002ED4D123685A6927EAC6
:1055E000020292B2002ACDD000232022236384F845
:1055F0003D2084F83E30236C1343DDE770B504464C
:105600000D46164623685B691B0601D500201EE087
:105610002046FFF758FFC8B96A1CF3D0FFF7A6FA77
:10562000801BA84201D8002DECD123685B6913F0E0
:105630008003E7D12022236384F83D2084F83E30A4
:10564000226C84F83C3042F020022264012070BDBC
:105650002DE9F043154602689946136885B043F476
:1056600080731360DDE90C780E463B4600224FF054
:105670000111CDF800800446FFF73EFF236838B1E2
:105680001B68DB0502D54FF400732364032620E07A
:1056900006F0FE061E613A46434620461849FFF7CB
:1056A0006BFFA8B9236803905A69394603929B6936
:1056B000424603932046039BFFF7A0FF064660B1D6
:1056C000236C042B01BF2268136843F4007313603A
:1056D0000126304605B0BDE8F083B9F1010F23681B
:1056E00002D1EDB21D61F4E72A0A1A613946424639
:1056F0002046FFF783FF0028E2D12368F1E700BFCF
:10570000020001002DE9FF479A46DDE90C780368A5
:1057100015461A680E4642F480621A601A684FF005
:10572000011142F480721A603B460022CDF80080DD
:105730000446FFF7E1FE236848B11B68DB0548BF5C
:105740004FF400734FF0030048BF236421E05FFA79
:1057500086F906F0FE061E613A46434620462A496F
:10576000FFF70AFFA0B9236803905A6939460392EC
:105770009B69424603932046039BFFF73FFF58B1C6
:10578000236C042B01BF2268136843F40073136079
:10579000012004B0BDE8F087BAF1010F23681AD1E7
:1057A000EDB24246394620461D61FFF727FF02460B
:1057B0000028E5D1216820460B6843F480730B6014
:1057C0003B464FF00111CDF80080FFF795FE2268AF
:1057D00060B11368B2E72A0A1A6139464246204688
:1057E000FFF70CFF0028CBD12368D9E749F001036C
:1057F0001361204643463A460349FFF7BDFE003891
:1058000018BF0120C5E700BF0200010070B50446C3
:105810000D46164623685B695B0701D500201EE034
:105820002046FFF750FEC8B96A1CF3D0FFF79EF977
:10583000801BA84201D8002DECD123685B6913F0CE
:105840000403E7D12022236384F83D2084F83E300E
:10585000226C84F83C3042F020022264012070BDAA
:1058600070B504460D46164621684B6913F0400397
:1058700001D0002011E04A69D2060FD56FF0100266
:105880004A612022236384F83D2084F83E30236C53
:1058900023640023012084F83C3070BDFFF766F9D3
:1058A000801BA84201D8002DDED123685B6913F06C
:1058B0004003D9D12022236384F83D2084F83E3070
:1058C000236C1343E4E7000070B5044608B90120D7
:1058D00070BD90F83D3003F0FF021BB980F83C200A
:1058E000FCF79AFC242384F83D3023681A6822F0E0
:1058F00001021A601A6842F400421A601A6822F41F
:1059000000421A6001F012FC3F4B65689D4294BF53
:105910003E4B3F4B98428CBF00230123002BD6D136
:10592000394E3C4BB542B0FBF3F388BF4FF496764B
:105930002268516821F03F0141EA030182BF7343AD
:105940004FF47A76B3FBF6F35160116A013321F01C
:105950003F010B431362D169431E2B4821F44F4191
:10596000854221F0FF0132D86D00B3FBF5F340F61C
:10597000FC700133034242D0C3F30B031943D161DE
:105980001168D4E9073021F0C00103430B431360D1
:105990009168D4E9030321F40341034321F0FF019B
:1059A0000B439360D168D4E9053021F0FF01034334
:1059B0000B43D3601368002043F0010313602023DE
:1059C000206484F83D30206384F83E0080E7A068BE
:1059D00050B905EB4505B3FBF5F30133C3F30B03F6
:1059E0007BB143F40043C9E719206843B3FBF0F3EC
:1059F0000133C3F30B0323B143F44043BEE7042355
:105A0000BCE70123BAE700BFA08601007F841E0027
:105A1000FF083D0040420F002DE9F7430446994638
:105A20000F4690460C9EFFF7A1F894F83D300546CE
:105A3000202B03D0022003B0BDE8F083009019238F
:105A4000012220463A49FFF757FD0028F2D194F889
:105A50003C30012BEED00123206884F83C300368F1
:105A60004246D90758BF036839465CBF43F001037B
:105A70000360036823F400630360212384F83D304E
:105A8000402384F83E30002323640A9B204663624F
:105A9000BDF82C306385638D2385264BE3624B462E
:105AA000CDE90065FFF7D4FD00282AD00120C2E728
:105AB000FFF7A4FD40B1236C042B01BF22681368DB
:105AC00043F400731360F1E7636A27681A4612F81B
:105AD000011B39616262628D218D013A92B2628549
